:100000000C9425040C944D040C944D040C944D0454
:100010000C944D040C944D040C944D040C944D041C
:100020000C944D040C944D040C944D040C944D040C
:100030000C944D040C944D040C944D040C944D04FC
:100040000C94FD0F0C944D040C944D040C944D0431
:100050000C944D040C944D040C944D040C944D04DC
:100060000C9447100C944D0400000000240027005D
:100070002A0000000000250028002B0000000000DE
:1000800023002600290004040404040404040202DA
:100090000202020203030303030301020408102007
:1000A0004080010204081020010204081020000012
:1000B0000008000201000003040700000000000027
:1000C00000005F0002020303020404040600FF05AF
:1000D000FF05FF00EE01DC02C1200580CD002106F6
:1000E000E9C8AC00220693CB2415230AACC8A4347B
:1000F000541A2A012409B3C7A5A1C148092508AB90
:10010000C864D446012609ACC8C514AB98022705BB
:10011000D1CB082807F2C7A966002908B2C7C45482
:1001200029002A07ABC8A46A352B08ABC8C5B4623E
:10013000022C0692C729002D058BCA0C2E05C9C8B2
:10014000042F07ABC85665043008ABC855435500AB
:100150003107ABC825590D3207ABC835531A3308E0
:10016000ABC8CC94C1023408ABC824356201350851
:10017000ABC88CA8C1023607ABC84DD5023708AB57
:10018000C8CC5446003807ABC8ADD6023907ABC857
:10019000B5E4023A06E1C8C4003B07AAC765A80057
:1001A0003C08ABC8A61A64103D069BC96C303E09DA
:1001B000ABC86490412A013F09ABC86890324C003B
:1001C0004007ABC82D1B084108ABC85543A90042E6
:1001D00008ABC8A8B4D2024308ABC8553255004496
:1001E00008ABC8A8642D004508ABC88CA8E200463F
:1001F00008ABC88CA862044708ABC8CDA4920048DD
:1002000008ABC82435940A4907ABC8AC580D4A0757
:10021000ABC896AA024B08ABC824B5920A4C07ABF0
:10022000C8C4E6004D08ABC8A431940A4E08ABC858
:10023000AAA124004F07ABC85556055008ABC8A863
:10024000B462045108B3C755560D025208ABC8A892
:10025000B4920A5308ABC86D90C1025407ABC8AC46
:10026000D8025507ABC824D7085608ABC8246BA4DE
:10027000045708ABC82435860A5808ABC824D552A1
:10028000015908ABC8245556005A07ABC8CC540EC8
:100290005B06EAC8AC4A5C09ABC8C40C3288015D95
:1002A00006AAC8A86A5E0593CB355F058BC70C60AC
:1002B00006D2CBC4006107A3C82D95046208ABC861
:1002C0004495D4026307A3C8CD0C046408ABC8A648
:1002D000A592006506A3C855536608ABC8A6B462CC
:1002E000026708ABC7AD2417006808ABC84495ACDB
:1002F000006908ABC86524D3006A08B3C766582EE6
:10030000006B08ABC8C4B4920A6C07ABC8C8D6006F
:100310006D08A3C8A4A154006E07A3C8A864056F04
:1003200007A3C855AA027008ABC7A8B46204710835
:10033000ABC72D9564007208A3C8A41523007308E9
:10034000A3C88D0C16007408ABC8A5153308750733
:10035000A3C8242B097607A3C824AB027708A3C837
:10036000243554007807A3C8A432157908ABC724F4
:1003700095E4027A07A3C8CC94067B08B3C7A624E9
:100380006B107C06E9C80C017D09B3C76410554C9D
:10039000117E0794CB25950000000004FFFF0000AC
:1003A0005F00030304040304050C0BFFFE08FE08B2
:1003B000FE01760345048B200500CC09210882C488
:1003C000894B8C002208336D8B884A0023128744A6
:1003D000BC483012324582919029128CC4002410FE
:1003E000A53CAB58252209314524915A080025190E
:1003F0008AC41D914C228949122529224944128C14
:10040000486221492C2601261188C42CA924288958
:100410004A233291126522012706316D8A01280C88
:10042000A4B4BA504822D2260B06290CA4B48A6080
:100430004C498B280D002A0B555CAB949449A610AF
:10044000002B0A554CAB60A8140C012C0842B409CF
:100450008A04002D06135C8A012E0622C409022F8D
:100460000C84C4BAA45828168AC500300B85449B56
:1004700089842F920900310984451BC9482F043211
:100480000D85449B8984221389628701330E85443C
:100490009B898422125228920900340C8544AB9522
:1004A000882432BA8906350C85448B8324C842914E
:1004B0004C00360D85449B89844691B04826003710
:1004C0000B84448B432C140B6901380E85449B89A3
:1004D0008422994858241300390D85449B8984450A
:1004E00042A34826003A0752C40912013B0872B4DD
:1004F000091245023C0856CC4B91B2023D073554D7
:100500008B6A013E0956CC0BB19222003F0D854407
:100510009B899A481407C944004014A93CBDA14CCA
:10052000148D8428FA49228A43E42012004110895C
:1005300043CC38603C0D0943B253503222421087FD
:10054000440C938A485252114944870800430E874D
:1005500044AC491A71AA1809862800441288C40CB0
:100560009B2C2493C82432894C228B9800450F86FB
:10057000C40B8B282209912421514474461086C44F
:100580000B8B28228A48422449484602470F874459
:10059000AC491A712AAA4962A24900481189440D3E
:1005A0000A452692894E32914C249330490984C4DD
:1005B0000A8A482F044A0C86C42B9A5045979068A3
:1005C000044B1189C40C925A4C1494448B22990AFE
:1005D00069004C0B86C40B9A50A788E8004D198B14
:1005E000440E1A65368A4822A28824228A4822A20A
:1005F0009052486522214E1488C40CD944161A859D
:1006000028A10829348A496611004F0D8744AC5946
:100610008A8C9B24161B01500F87440C938A482216
:100620009294A4421A005114983CAC612C2493C8B3
:1006300024320945241152A21200520D88C40C9B89
:1006400048A7584DA48532530C86C49B255AB14601
:100650009A4C00540C86C48B8B9690501B05005509
:100660001388C40CCA44169285642159481692C551
:100670004800561288C40CCA441692C524414950F9
:100680001215CB0057198B440E8A642212859442AE
:100690009288242489486293A14C28130158118818
:1006A000C40CCA44169A04C7C3C828269910591006
:1006B00088C40CCA441693042551B12A09005A0A69
:1006C00086C48B9B6CB44D765B08A3348A8A7E19F2
:1006D0005C0C84C48A5830168C0563015D08A33411
:1006E0008A897E295E0B6554AB606C144993055F63
:1006F0000616340B03600723740A9100610854C482
:100700008A998462620D86C40BA116C984449A4CEE
:1007100000630B55449B8968268A4C00640B86C491
:10072000BBA1CA8965A200650955449B89E42024C0
:10073000660D85C4AA89242222C9942800670C86E4
:1007400034CBD048A26966BB00680B86C40BA116E7
:10075000C984C424690A84C41A9174A485006A0AED
:10076000A3B41AB5892E14006B0C86440BA116098C
:10077000892451196C0884C48A91BE106D0E5AC424
:100780000D8948B24212914424056E0A56C40B8961
:10079000644262126F0A56C41B8A88494201700D76
:1007A00076B40B896442225D843300710F77B49B69
:1007B0008A482292484612A99000720954C40AC974
:1007C000490900730854C49A12A902740973449A1F
:1007D00088A4A224750956C40B11978902760C5679
:1007E000C48B894A4812138A00770F59448D892E89
:1007F00021892426114A4400780B56C48B894A4C1F
:10080000165119790E76B48B894A4812138A6642BA
:10081000007A0955440B8B48C9007B0BA4B42A8984
:10082000484526D2267C0781468B43007D0CA4B424
:100830000A99484D22D222027E0826DC9B89640256
:1008400000000004FFFF0000621111241FBECFEF63
:10085000D8E0DEBFCDBF11E0A0E0B1E0E6E6F1E315
:1008600002C005900D92AE3BB107D9F726E0AEEB82
:10087000B1E001C01D92A437B207E1F714E0C5E270
:10088000D4E004C02197FE010E94A418C432D1070D
:10089000C9F70E946E120C94B1180C9400006623E4
:1008A00029F06A3019F0862F90E008958FEF9FEFBE
:1008B0000895CF92DF92EF92FF920F931F93CF9301
:1008C000DF93EC01842F8770E1E0F0E0082E01C097
:1008D000EE0F0A94EAF73E2F7E019AE7E90EF11C2B
:1008E000D7019C9110E0923018F41E2F913029F11D
:1008F00050E0487FE9ADFAADC880D980D601509666
:100900009C91949F6001959FD00C11246C0D7D2DBE
:10091000711DDF01A60FB71F011115C08C91812B2E
:1009200083278D932150D1F7DF91CF911F910F91A4
:10093000FF90EF90DF90CF90089530E0D9CF110F66
:10094000330F222389F39C91912B93279C938F5FE4
:10095000877021508111F3CF9DADA90FB11DF70113
:100960009081923028F4913009F031E011E0E9CF24
:1009700031E0E7CF80E0089580E00895CF93DF93E2
:10098000C0EFD5E080933006EBADFCAD0190F08177
:10099000E02D84EF95E00995EBADFCAD0280F3818D
:1009A000E02D84EF95E0DF91CF9109949B01DC016C
:1009B0001896ED91FC9141E067E10994833081F054
:1009C00028F4813099F08230A9F008958730A9F099
:1009D0008830C9F08430B1F4809180008F7D03C0ED
:1009E000809180008F7780938000089584B58F7701
:1009F00084BD089584B58F7DFBCF8091B0008F7743
:100A00008093B00008958091B0008F7DF9CFCF938F
:100A1000DF93282F30E0F901E255FF4F8491F9016F
:100A2000E656FF4FD491F901EA57FF4FC491CC230A
:100A3000A1F081110E94DE04EC2FF0E0EE0FFF1F09
:100A4000E458FF4FA591B491EC91ED2381E090E043
:100A500009F480E0DF91CF91089580E090E0FACF33
:100A60001F93CF93DF93282F30E0F901E255FF4F1A
:100A70008491F901E656FF4FD491F901EA57FF4FEF
:100A8000C491CC23A9F0162F81110E94DE04EC2F13
:100A9000F0E0EE0FFF1FEE58FF4FA591B4918FB716
:100AA000F894EC91111108C0D095DE23DC938FBF30
:100AB000DF91CF911F910895DE2BF8CFCF93DF9375
:100AC00090E0FC01E656FF4F24918A579F4FFC01AE
:100AD00084918823D1F090E0880F991FFC01E85998
:100AE000FF4FA591B491FC01EE58FF4FC591D491F1
:100AF000623071F49FB7F8943C91822F80958323E4
:100B00008C93E8812E2B28839FBFDF91CF9108958E
:100B10008FB7F894EC912E2B2C938FBFF6CF3FB765
:100B2000F89480915B0290915C02A0915D02B0917B
:100B30005E0226B5A89B05C02F3F19F00196A11DA6
:100B4000B11D3FBFBA2FA92F982F8827BC01CD0117
:100B5000620F711D811D911D42E0660F771F881F76
:100B6000991F4A95D1F7089585ED8093BC00809137
:100B7000BC0084FDFCCF10923002089520910C023D
:100B8000260F3327331F21323105ECF42091300238
:100B9000FC0190E080E0243069F082E00895A091AB
:100BA0000C022191AC0144515E4FA40FB52FB11D31
:100BB0002C930196861798F380910C02680F60932E
:100BC0000C0280E0089581E0089508958FEF9FEF73
:100BD00008958FEF9FEF08958091EB0190E091953C
:100BE000819591090895CF93DF93CB01EA01642F9A
:100BF0000E94BE05CE01DF91CF910895CF93DF9380
:100C00001F92CDB7DEB7698361E0CE0101960E94E5
:100C1000BE0581E090E00F90DF91CF910895DC0157
:100C20001A96ED91FC9130E020E009940F931F9308
:100C3000CF93DF93EC0188819981683109F48EC0EC
:100C400038F4643109F47BC0673151F080E04CC066
:100C5000693109F4C9C06032C9F74093EA0143C061
:100C60001091EA010091E201A091E801B091E9013F
:100C70007091E701E091E501F091E6016091E301F7
:100C80005091E401EC018C85E90180FF2AC04423E6
:100C900051F1899190E0111191604150009709F054
:100CA0003BC08C9187238C9389E09081962390831D
:100CB0009081952B90838150C1F7E9CF899190E085
:100CC0001111916041500097A1F48C9187238C936E
:100CD00089E09081952B9083908196239083815019
:100CE000C1F74111EBCF81E0DF91CF911F910F91BF
:100CF000089529E03C9190FF0DC0302B3C9330814A
:100D0000352B3083880F991F308136233083215053
:100D100089F7E7CF3723F2CF29E03C9190FF0DC050
:100D2000302B3C93308136233083880F991F3081DC
:100D3000352B3083215089F7AACF3723F2CFFC011E
:100D4000418169E4CE010E940F06E881F981448562
:100D5000417060E4CE010E940F06C5CFDC014C91CA
:100D600069E4CE010E940F06A881B981EA85FB855E
:100D700030E020E012964C916CE2CE0109958F8D07
:100D800090E0FC01EA57FF4FE491F0E0EE0FFF1F07
:100D9000EE58FF4F259134913093E6012093E50101
:100DA000FC01E656FF4FE491E093E401E095E09307
:100DB000E30188A190E0FC01EA57FF4FE491F0E0E5
:100DC000EE0FFF1FEE58FF4F259134913093E9014C
:100DD0002093E801FC01E656FF4FE491E093E20125
:100DE000E095E093E7017FCFEA85FB8530E020E0E6
:100DF000DC0113964C916CE2CE010995E881F981F2
:100E0000418169E4A7CFDC011496ED91FC9130E0BB
:100E100020E040E060E10994DC011696ED91FC9140
:100E200030E020E040E069E10994DC011696ED91A4
:100E3000FC9130E020E040E068E109949A01DC0197
:100E40001696ED91FC91462F67E10994EF92FF927F
:100E50000F931F93CF93DF931F92CDB7DEB77C0123
:100E60008B01D8016C91673129F150F46531A0F400
:100E70000F90DF91CF911F910F91FF90EF90089508
:100E80006A3118F16E3FA1F7F8014181498369E2A7
:100E9000C7010E940F060BC0F80141814983D701A9
:100EA0001696ED91FC9130E020E0C70109950E5FA8
:100EB0001F4FD7CFF80181818983AE014F5F5F4F0C
:100EC00061E0C7010E941E07F2CF0F5F1F4FD701DD
:100ED0001696ED91FC9130E020E040E0C7010995C5
:100EE000C0CF462FDC011696ED91FC9130E020E05A
:100EF00065E10994EF92FF920F931F93CF93DF93D5
:100F0000EC01142F7901693069F489E391E0998348
:100F100088831C8A81E0DF91CF911F910F91FF9010
:100F2000EF9008956D3009F475C038F46A3091F18E
:100F30006B3009F468C080E0EECF6E3009F47DC0FC
:100F40006F30C9F70E941507F7010381000F000FEA
:100F5000000F6C89060F602F6F70CE010E94710721
:100F6000602F62956F706061CE010E947107F7017A
:100F70006481606BCE010E947107F701408151814D
:100F80006281660F660F660FCE010E941E07115028
:100F9000A1F75DC0EA85FB8530E020E040E068E233
:100FA0000995EE81FF8130E020E040E064E1CE0170
:100FB000099541E06BE4CE010E940F06E881F981BA
:100FC000448169E2CE010E940F0640E06BE4CE014D
:100FD0000E940F06E881F981448169E2CE010E94F6
:100FE0000F0641E06BE4CE010E940F06E881F98113
:100FF000458169E2CE010E940F0666E271E0CE01F2
:101000000E94260787CF6FE171E04423C1F368E1B6
:1010100071E0F5CF411109C061E171E00E9426073E
:10102000E881F98182898C8B75CF6AE071E00E943A
:101030002607E881F9818389F6CF0E941507612F81
:101040006695669566956068CE010E947107CE012F
:101050000E940C075FCFCF93DF931F92CDB7DEB70F
:101060006983BE016F5F7F4F0E94D6040F90DF91AE
:10107000CF910895462FDC011896ED91FC9130E058
:1010800020E060E20994EF92FF920F931F93CF93B9
:10109000DF938C01C62FD42F7901673130F465318D
:1010A000B8F4643131F080E01BC0673101F16A317E
:1010B000D0F7D8011896ED91FC9197014D2F6C2F28
:1010C000C801DF91CF911F910F91FF90EF9009948C
:1010D00060E00E943A086D2FC8010E942B0881E051
:1010E000DF91CF911F910F91FF90EF90089561E0F4
:1010F0000E943A08DECF0F93DC01DF963C91DF9728
:10110000431BD596ED91FC9109950F910895CF93CE
:10111000DF93FC01A081B18183AD982F990F990FC6
:10112000990F96AF50969C915097903208F09FE19E
:10113000990F990F990F95AF24AD922F990F990F91
:10114000990F97AF51963C915197682F620F77276F
:10115000771F3617170614F4832F821BEF01C05C2C
:10116000DF4F98832196880F880F880F890F888317
:10117000219680EF888354968D919C915597813F5D
:10118000910508F48883ED5BFF4F56968C91808320
:10119000DF91CF9108950F93FC01EA5BFF4F3081FF
:1011A00031965081451730F4301738F0041728F085
:1011B00080E013C03017D0F3FBCFFC01EC5BFF4F96
:1011C00030818B5B9F4FFC018081681740F481E088
:1011D000321718F081E0261758F70F91089532174B
:1011E000C8F3E6CF2F923F924F925F926F927F9219
:1011F0008F929F92AF92BF92CF92DF92EF92FF9227
:101200000F931F93CF93DF93EC014C0184E4880E7E
:10121000911CF4011082329720805E01F5E4AF0E3C
:10122000B11CF5012082359730806E01F6E4CF0EB7
:10123000D11CF6013082359740807E01F7E4EF0E35
:10124000F11CF7014082349610813297608031960C
:10125000708032975080012F262D472D652DCE01AD
:101260000E94CB08CC58DF4F811114C01882DF9147
:10127000CF911F910F91FF90EF90DF90CF90BF9093
:10128000AF909F908F907F906F905F904F903F9026
:101290002F90089581E08883552011F0F401508249
:1012A000621410F4F5016082371410F4F6017082B4
:1012B0001415E8F6F7011083DACF0F93DC01802FC5
:1012C000FD01EC58FF4F90819923E9F12223D9F1D8
:1012D000223020F0023079F56F5F621B082F017019
:1012E000FD0180FD32C0EA5BFF4F8081481758F155
:1012F00031968081481738F53297908131978081F7
:10130000260F2617F0F46917D8F42FEF290F82174C
:10131000D0F4681708F4682F291708F4922F961B49
:10132000D796ED91FC91D8970480F581E02D292F77
:10133000CD01099508C0033089F64F5F421BCECF1F
:10134000682F691720F30F910895EC5BFF4F8081A0
:101350006817C8F3319680816817A8F73296908194
:1013600031978081240F241778F4491760F42FEF08
:10137000290F821740F7481708F4482F291708F457
:10138000922F941BCDCF482F4917E8F6F2CF0F9339
:1013900090913A066917A0F090913B06691780F486
:1013A00090913806891760F090913906891740F4BA
:1013B000462F682F00E021E084EF95E00E945D0950
:1013C0000F910895CF92DF92EF92FF920F931F93A8
:1013D000CF93DF93D82FC62F6817F0F4182F161B62
:1013E000113638F5D12E8C2FE12C10E620E6F22EA6
:1013F000C0E0012F0695CC24CA94D81710F4CC2451
:10140000C394FC16F0F4DF91CF911F910F91FF90E0
:10141000EF90DF90CF900895162F181B113610F320
:10142000F62EC82F80E6D82EEE24E39480E6D0E096
:10143000E0CFF82E90E6D92EEE24E39480E0D0E6BB
:10144000D8CF6D2F8C2FEE2011F06C2F8D2F0E9496
:10145000C7090D1907FF02C0DC0D010FCF5FD1CF07
:10146000FF920F931F93CF93DF93182FC62FF42E65
:10147000D62FD20F282F240F0D2F462F682F84EF41
:1014800095E00E94CB08882359F000E02F2D4C2FC7
:10149000612F84EF95E00E945D09CF5FDC13F5CFEB
:1014A000DF91CF911F910F91FF900895DF92EF92FE
:1014B000FF920F931F93CF93DF93C82FD62FE42E65
:1014C000D22E162F120FF82EF40E012F2F2D462F8D
:1014D000682F84EF95E00E94CB08882309F100E093
:1014E0002E2D4D2F6C2F84EF95E00E945D0901E0B9
:1014F0002D2D4D2F6C2F84EF95E00E945D096FEF2D
:101500006F0D2D2D4D2F84EF95E00E945D094FEF5B
:10151000410F00E02E2D6C2F84EF95E00E945D09B5
:10152000DF91CF911F910F91FF90EF90DF90089581
:10153000213039F020F0223031F0840F0895860FE9
:101540000895841B0895861B0895213039F020F0FA
:10155000223031F0861B0895840F0895860F089578
:10156000841B08955F926F927F928F929F92AF92A9
:10157000BF92CF92DF92EF92FF920F931F93CF9380
:10158000DF935C01162F642EEC01C05BDF4FDC8023
:10159000ED804C018AE7880E911CFE80FD18C12E5B
:1015A000F11608F4CF2C5B800C85202F4E2D6D2D6D
:1015B0008A810E94980A782E202F4E2D6D2D852D20
:1015C0000E94A50A482F662071F08A85F401808365
:1015D0002C2D672DC5010E945D091F1548F01F19AC
:1015E000E394D12CDACF89858111F7CF8B85EECFAB
:1015F0001D0D1C83ED82DF91CF911F910F91FF9004
:10160000EF90DF90CF90BF90AF909F908F907F90A2
:101610006F905F900895DC0118964C911897ED91AA
:10162000FC911197249130E0042E02C03595279546
:101630000A94E2F7842F860F883068F0319611966D
:10164000FC93EE93E49198E0941B01C0EE0F9A9501
:10165000EAF72E2B885018968C938FEF9FEF01C0DE
:10166000880F6A95EAF7809582230895FC01E60FBA
:10167000F11D849190E0982F88273196E4918E0F88
:10168000911D0895CF93DF9320914006309141063C
:101690002817390709F490C0EC0190934106809314
:1016A0004006FC018491809351063196E491E093C9
:1016B0005206FE013296E491E0935306FE01339602
:1016C000E491E0935406FE013496E491E0935506CC
:1016D000FE013596E491E0935606FE013696E491BC
:1016E000E0935706FE013796E491E0935806FE0119
:1016F0003896E491E0935906FE013996E491E0931F
:101700005A06FE013A96E491E0935B06FE013B9691
:10171000E491E0935C06FE013C96E491E0935D0663
:10172000FE013D96E491E0935E06FE013E96E49153
:10173000E0935F06FE013F96E491E0936006FE01B0
:101740007096E491E093610661E1CE010E94360B50
:10175000909363068093620663E1CE010E94360B8C
:10176000909365068093640665E1CE010E94360B76
:10177000909367068093660680914006909141069B
:10178000892BD1F080915E0680936A0640915F06B6
:1017900040936B0690916906992371F0913079F42A
:1017A00090916006891714F490936A0680916106FF
:1017B000841714F480936B06DF91CF9108953091D4
:1017C0005B0620915D06082E000C990B622F022EFD
:1017D000000C770B630F711D37FD7A9586179707FD
:1017E0001CF4320F30936A06241734F720936B06EB
:1017F000E3CF6F927F928F929F92AF92BF92CF92E0
:10180000DF92EF92FF920F931F93CF93DF93EC0140
:10181000062F142F7901FC01E45AFF4F808181309B
:1018200009F445C0D0F1823009F44BC0833009F48B
:1018300052C0FE01EE5AFF4F008331961083379756
:101840008081918147962FEFE216F10411F008F0A4
:10185000E6C0E1E6EE16F10408F447C0FE01E059E7
:10186000FF4F20813181820F931F9C012F5F3F4FDB
:10187000F9014491411142C0712C872DDF91CF9124
:101880001F910F91FF90EF90DF90CF90BF90AF909E
:101890009F908F907F906F900895FE01E25BFF4FC5
:1018A0000190F081E02DCE010995180FC2CFFE0105
:1018B000E25BFF4F0190F081E02DCE010995081BFE
:1018C000B8CFFE01E25BFF4F0190F081E02DCE0129
:1018D0000995181BAECFFE01E25BFF4F0190F0812E
:1018E000E02DCE010995080FA4CFF1E4EF16F10425
:1018F00008F4BBCFFE01E259FF4FB3CFFC01449186
:101900004E151F0409F086C00296009709F4B4CF63
:101910007E01F0E5EF0EF11CF701918380831086C4
:1019200071966081C7010E940B0BF7018683729646
:101930006081C7010E940B0BA82EF70187836E01FF
:10194000FAE7CF0ED11CF6019081F701928781E072
:10195000911180E0F7018387FE01ED59FF4FB080C0
:101960006B2DC7010E940B0B882EFE01EC59FF4F17
:101970001081612FC7010E940B0B982EFE01EB59BD
:10198000FF4F0081602FC7010E940B0B015041E007
:1019900050E09A0101C0220F0A95EAF7782E721AD8
:1019A000F701068110160CF068CFBA94CA0101C085
:1019B000880FBA94EAF7881AB4849A0C115001C0BF
:1019C000440F1A95EAF7F42FF9199F2E2B2D4F2F5C
:1019D000682DF70182810E94980A182FF7018283EF
:1019E0002B2D492D682D83810E94A50AF701838341
:1019F000F1E0BF1609F47CC0BF1608F43FC022E036
:101A0000B21609F47BC093E0B91609F482C0082F1E
:101A1000212F38C0F9012491820F911D26CFFE019C
:101A2000EE58FF4F00811181080F191F680160E017
:101A3000C6010E94360B080F191F62E0C6010E9402
:101A4000360BF4E0CF0ED11C8E159F0580F3F80104
:101A5000849190E0982F88273196E4918E2B0097FF
:101A600009F40ACFE816F90619F4C80103964DCF18
:101A7000F8013296E4910E0F111DE9CF202F210FAE
:101A8000082F0A0D482F612FCE010E94CB08882312
:101A900009F4F3CEF701148215828E01015A1F4F0B
:101AA0004E01F0E68F0E911CF8016081C7010E9483
:101AB0000B0B682EF4016081C7010E940B0BB82E3E
:101AC00040E0662DCE010E94B20A41E06B2DCE01AE
:101AD0000E94B20A61E0C7010E940B0B8111F0CF96
:101AE000F70185818A1504F38285F6018083C5CECE
:101AF000BA1821E0210F080F1B0DC4CF91E0392F38
:101B0000301B21E0210F9A1901E0080F890F130FF4
:101B1000B9CF212F2A0D982F901B01E0080F81E0EB
:101B2000890FB0CFFF920F931F93CF93DF93C82FEE
:101B3000D62F10920D068A01F12CF80161918F01C8
:101B4000E091F605F091F70584EF95E009958F3F58
:101B50009807F1F08E3F2FEF920779F39C014D2FFC
:101B60006C2F84EF95E00E94F90B90915006913014
:101B700049F030F0923041F0933041F0F80EDDCF73
:101B8000C80FFCCFD80FFACFC81BF8CFD81BF6CFA1
:101B90008F2DDF91CF911F910F91FF9008952FE42A
:101BA00034E03093F7052093F6050C94920DAF9234
:101BB000BF92CF92DF92EF92FF920F931F93CF933A
:101BC000DF9300D000D01F92CDB7DEB78C01DC01CF
:101BD000DB96AC90DB97DC96EC90DC97ED91FC917A
:101BE000B188FE2CD12CC12CD801ED91FC9111971C
:101BF0008089D9962D913C911C82FD828B83B8E01F
:101C00008B9FC00111248C9DA0018D9D500D9C9D2A
:101C1000500D1124240F351F3A832983D8011496BF
:101C2000ED91FC919E012F5F3F4F41E06FE0C801B5
:101C30000995F3948F2D8E198A1528F4BFEFCB1ACE
:101C4000DB0AFB1488F20F900F900F900F900F900B
:101C5000DF91CF911F910F91FF90EF90DF90CF9088
:101C6000BF90AF9008958F929F92AF92BF92CF9204
:101C7000DF92EF92FF92CF93DF937C01C62F6C32FD
:101C8000B0F46A32E8F5683249F1693209F444C0C7
:101C900080E0C034B0F1CF73F701EC0FF11D878DF8
:101CA0008F3F71F1C03108F06DC0642F14C06D32E8
:101CB00009F456C068F384EB860F823048F7CF737F
:101CC000CE0DDF2DD11D8F8D411158C061E00E94D6
:101CD0005E0560E08F8D0E94300512C02FE1E20E9C
:101CE000F11CD0E0F70181917F018F3F31F061E07D
:101CF000D03108F062E00E945E05DF5FD63191F7D7
:101D000081E0DF91CF91FF90EF90DF90CF90BF9077
:101D1000AF909F908F900895C42ED12CF12CE12C80
:101D20000E948F054B015C01C114D104E104F10450
:101D300039F30E948F05681979098A099B09683E61
:101D400073408105910580F3F1E0CF1AD108E108D5
:101D5000F10828EE820E23E0921EA11CB11CE4CFF4
:101D600085E090E0433010F082E090E0880F991F0A
:101D7000880F991F05970197F1F7C2CF62E00E9483
:101D80005E05BECF0E94070521E0892B09F420E003
:101D9000F701228FB5CFEF92FF920F931F93CF934E
:101DA000DF93EC018B810E9407057C018D810E94ED
:101DB00007058C018F810E94070528813981892BB5
:101DC00059F5EF2871F481E08A832E3F4FEF3407F5
:101DD00029F08EEF9FEF2230310581F490E080E012
:101DE0000FC0012BA1F481E08A832E3F8FEF3807CB
:101DF000A9F32230310591F382E090E09983888342
:101E0000DF91CF911F910F91FF90EF90089584E0A3
:101E100090E099838883E2CFC901EF2849F421300B
:101E20003105E1F28FEF9FEF2F3F3F4FB9F2F1CF36
:101E3000012B49F42130310589F22F3F3F4F71F2D8
:101E400081E090E0E6CF2430310541F41982188218
:101E50008A81811118C083E090E0D2CF2F3F3207F2
:101E600019F419821882CCCF21303105D1F32E3FDD
:101E70008FEF380719F419821882B0CF223031055C
:101E800009F0ACCFF8CF1A82A9CFCF92DF92EF92B0
:101E9000FF920F931F93CF93DF936C01EB017B01B4
:101EA000E40EF51E10E000E0CE15DF0561F069914B
:101EB000D601ED91FC910190F081E02DC6010995CC
:101EC000080F191FF1CFC801DF91CF911F910F911A
:101ED000FF90EF90DF90CF9008950F931F93CF93D3
:101EE000DF93EC018C010C5F1F4FFC01E058FF4FAA
:101EF0000190F081E02DC80109958E3F2FEF9207E8
:101F000070F4FE01ED57FF4FCE57DF4F9C0140812B
:101F10006881C8010E94F90B9881890F888381E04C
:101F200090E0DF91CF911F910F910895089590E077
:101F300080E008958F929F92AF92BF920F931F936C
:101F4000CF93DF93CDB7DEB7A1970FB6F894DEBF7E
:101F50000FBECDBF19A2423008F44AE08E010F5DDA
:101F60001F4F842E912CB12CA12CA50194010E940D
:101F70006E18E62FB901CA01EA3044F5E05DD801D8
:101F8000EE938D01232B242B252B79F790E080E015
:101F9000109769F0FD0101900020E9F73197AF013A
:101FA0004A1B5B0BBD0180EF95E00E94450FA19697
:101FB0000FB6F894DEBF0FBECDBFDF91CF911F915A
:101FC0000F91BF90AF909F908F900895E95CD7CF0D
:101FD000FC01A081B18150962C9183AD38E0839FA4
:101FE000C0011124289FA001299F500D112470E0E9
:101FF00060E081AD92AD0C94AA181F920F920FB6BB
:102000000F9211242F933F938F939F93AF93BF937E
:102010008091570290915802A0915902B0915A02B2
:102020003091560223E0230F2D3758F50196A11D5C
:10203000B11D209356028093570290935802A093AB
:102040005902B0935A0280915B0290915C02A09178
:102050005D02B0915E020196A11DB11D80935B02ED
:1020600090935C02A0935D02B0935E02BF91AF912A
:102070009F918F913F912F910F900FBE0F901F90C6
:10208000189526E8230F0296A11DB11DD2CF1F92ED
:102090000F920FB60F9211242F933F934F935F939C
:1020A0006F937F938F939F93AF93BF93EF93FF9320
:1020B0008091B900887F803609F44AC0F0F58832F3
:1020C00009F4A5C018F5803109F499C0B8F4882343
:1020D00009F4F5C0883009F492C0FF91EF91BF91E7
:1020E000AF919F918F917F916F915F914F913F91B0
:1020F0002F910F900FBE0F901F901895883109F403
:1021000086C0803251F780932F0214C0803409F4C6
:102110009BC040F48033B9F38833F9F680932F02E3
:1021200085ECAEC0803509F483C0883509F494C0CD
:10213000883499F60E94B405D0CF883909F48AC052
:1021400038F5883729F050F4883611F0803729F6B1
:1021500083E08093300210922E0255C0883809F433
:1021600079C0803919F0803809F0B7CF80912E02FC
:10217000803208F06FC0E0912E0281E08E0F8093D4
:102180002E028091BB00F0E0E25FFD4F80833BC0F8
:10219000803B39F0D0F4803A09F477C0883A09F0EE
:1021A0009CCF84E08093300210920D0210920C02BA
:1021B000F0E0E0E0099580910C0281110FC081E010
:1021C00080930C021092EC0109C0803C09F4A8CF66
:1021D000883C09F4A5CF883B09F07FCFE0910D0240
:1021E00081E08E0F80930D02F0E0E451FE4F80817C
:1021F0008093BB0090910D0280910C0229C08091C8
:1022000055028093BB0085EC8093BC0066CF909113
:10221000540280915302981758F5E091540281E0DE
:102220008E0F80935402F0E0ED5CFD4F8081E9CF8A
:10223000E091540281E08E0F809354028091BB00A4
:10224000F0E0ED5CFD4F8083909154028091530249
:102250009817C8F285E8D8CFE091540281E08E0F3C
:10226000809354028091BB00F0E0ED5CFD4F8083D1
:102270008091320281115ECF81E08093310284EA45
:102280008093BC001092300228CF85EC8093BC0074
:102290001092300280912E02803230F4E0912E02B2
:1022A000F0E0E25FFD4F108260912E0270E08EE060
:1022B00092E0F0E0E0E0099510922E020ECF10922D
:1022C0002F0238CF1F93CF93DF931092F305109214
:1022D000F2058FE494E0909371068093700610925B
:1022E00072061092730610920D0685E591E09093A8
:1022F000F1058093F0051092F5051092F405109207
:10230000090610920C061092000610920106109217
:102310000206109203068FEF80930A0680930F0641
:10232000E3E1F6E089E296E0DFEFD1938E179F07B5
:10233000E1F78AE797E09093F9058093F80583E445
:1023400098E09093FB058093FA0586E196E09093E0
:10235000FD058093FC0583E39EE09093FF05809349
:10236000FE0530E020E040E069E084EF95E00E9467
:102370007A07109241061092400689E594E0909306
:102380002A06809329068FE592E090932E0680938B
:102390002D0619E010932F061092300610924D066C
:1023A00010926D06C1E0C0936E06C0936F068DE576
:1023B00091E090932C0680932B0684EF95E00E9489
:1023C000870810923C0610923E06D0933D06D093AB
:1023D0003F06E0912B06F0912C060280F381E02D60
:1023E00084EF95E009958CEB94E0909343068093FD
:1023F00042061092500688E080931306109314064C
:102400008AE080931C069BE090931E061092E805DC
:102410001092E7051092E90522E030E03093EB05D9
:102420002093EA0523E030E03093ED052093EC059E
:1024300024E030E03093EF052093EE051092DF05A5
:102440001092DE051092E00527E030E03093E205BF
:102450002093E10526E030E03093E4052093E30586
:1024600025E030E03093E6052093E5053093C00584
:102470002093BF05E0E0F1E0A1ECB5E001900D9202
:102480008A95E1F7C093CB051092CD051092CC054B
:102490001092CF051092CE051092D1051092D00562
:1024A0001092D3051092D2051092D5051092D40542
:1024B0008AE590E09093D7058093D6059093D9054F
:1024C0008093D8059093DB058093DA051092DD05A3
:1024D0001092DC05DF91CF911F910895789484B517
:1024E000826084BD84B5816084BD85B5826085BD10
:1024F00085B5816085BD80916E00816080936E009E
:10250000109281008091810082608093810080918F
:102510008100816080938100809180008160809340
:1025200080008091B10084608093B1008091B00000
:1025300081608093B00080917A00846080937A00FB
:1025400080917A00826080937A0080917A00816025
:1025500080937A0080917A00806880937A0010924C
:10256000C100E091F805F091F90530E020E040E08D
:102570006AE084EF95E0099580916F06882321F049
:1025800084EF95E00E94E80F80E00E94BE0484EF93
:1025900095E00E94D70DC091300680912F06C80F9C
:1025A000E091F405F091F5058189C81708F4ABC0F6
:1025B00084EF95E00E94030780E00E94BE04E09152
:1025C000F805F091F90530E020E040E06BE084EFA1
:1025D00095E00995DEE000E010E0C1E092E3B92E5D
:1025E00087EE95E00E94CB0E7C018EED95E00E9477
:1025F000CB0E9C0143E0E416F10409F08EC0E0909C
:10260000CE05F090CF05E091CC05F091CD05EE0F11
:10261000FF1FEF53FA4F608171816115710541F021
:10262000C70101960E945A189093CF058093CE055A
:102630008091CE059091CF05E816F90611F0C09370
:10264000CB052130310509F060C18091D005909112
:10265000D105843691053CF4C093CB050596909343
:10266000D1058093D0058091CB05882309F4E7C17B
:102670001092CB0584EF95E00E94E80F6DE08DE0AD
:102680000E94E20969E389E30E94E20980EA93E09B
:102690000E94420B29E04BE46BE384E10E94560A5E
:1026A0006091D0057091D105072E000C880B990B15
:1026B0000E94611720E030E048EC52E40E94BE1610
:1026C00020E030E04EE852E40E94ED170E943017FF
:1026D000462F25E06DE386E10E94300A8091CC050B
:1026E0009091CD058230910509F43EC20CF01DC1D8
:1026F000009709F452C1019709F4A8C147EB51E0D2
:102700006AE08AE1F8C180916F06882321F084EFA6
:1027100095E00E94E80F8C2F38CF82E0E816F10494
:10272000A1F48091CC059091CD0501966091BF05F3
:102730007091C0050E945A189093CD058093CC05E6
:102740001092CF051092CE057ACF4EEFE4164FEFE0
:10275000F406B9F48091CC059091CD05009761F015
:1027600001979093CD058093CC05C093CB05109233
:10277000CF051092CE0565CF8091BF059091C00521
:10278000EFCF8FEFE816F80629F041E0E416F104E8
:1027900009F057CF8091CC059091CD05009751F06D
:1027A0008130910509F041C08091CE059091CF050F
:1027B0000097E1F48091D2059091D305EF20E09449
:1027C00069F48D394FEF94070CF43BCFC093CB05E0
:1027D00005979093D3058093D20533CF8436910526
:1027E0000CF02FCFC093CB050596F3CF019709F0DE
:1027F00028CF8091D4059091D505EF20E09469F41D
:102800008F3C4FEF94070CF41CCFC093CB0505977A
:102810009093D5058093D40514CF823391050CF0A5
:1028200010CFC093CB050596F3CF029709F009CFDF
:102830008091CE059091CF05EF20E094C9F58130CD
:102840009105B1F08230910519F1892B09F0F9CE8B
:102850008091D6059091D705181619060CF0F1CE87
:10286000C093CB050F979093D7058093D605E9CEFB
:102870008091D8059091D905181619060CF0E1CE73
:10288000C093CB050F979093D9058093D805D9CEE7
:102890008091DA059091DB05181619060CF0D1CE5F
:1028A000C093CB050F979093DB058093DA05C9CED3
:1028B0008130910591F082309105D9F0892B09F092
:1028C000C0CE8091D6059091D7058F3F91050CF031
:1028D000B8CEC093CB050F96C6CF8091D805909106
:1028E000D9058F3F91050CF0ACCEC093CB050F9668
:1028F000CACF8091DA059091DB058F3F91050CF0EE
:10290000A0CEC093CB050F96CECF2F3F3F4F09F0FF
:10291000AACE8091D0059091D105181619060CF019
:10292000A2CEC093CB0505979ACE8330910509F4CA
:10293000A9C1049709F0E2CE49EA51E06AE084E1D6
:102940000E94CF0D41EB51E063E285E00E94CF0D84
:10295000B092720683E280937306C090DC05D0903B
:10296000DD054FEFC41AD40A0D2C000CEE08FF0849
:102970004AE0C701B601F7FE0DC06DE280EF95E0B9
:102980000E946D0F66277727CB016C197D098E0990
:102990009F094AE00E949A0F4AC043E651E06AE06C
:1029A00080E20E94CF0D48E651E069E185E00E9497
:1029B000CF0D2AE048E56CE184E00E94560A609160
:1029C000D2057091D305072E000C880B990B0E943D
:1029D000611720E030E048EC52E40E94BE1620E08F
:1029E00030E040E252E40E94ED1720E030E048E39E
:1029F00052E40E9452160E943017862F26E044E0CF
:102A00006EE10E94300A82EC90E00E94420B4FE699
:102A100051E06CE285E00E94CF0D45E751E06CE2A9
:102A200088E40E94CF0D80EA93E00E94420B84EF7D
:102A300095E00E94D70D84EF95E00E9403070115F1
:102A4000110509F4CDCD0E940000CACD4BE751E03D
:102A50006AE080E10E94CF0D8091CE059091CF0574
:102A6000009709F04BC048E651E069E185E00E941B
:102A7000CF0D2AE048E56CE184E00E94560A60919F
:102A8000D2057091D305072E000C880B990B0E947C
:102A9000611720E030E048EC52E40E94BE1620E0CE
:102AA00030E040E252E40E94ED1720E030E048E3DD
:102AB00052E40E9452160E943017862F26E044E00E
:102AC0006EE10E94300A82EC90E00E94420B4FE6D9
:102AD00051E06CE285E00E94CF0D45E751E06CE2E9
:102AE00088E40E94CF0D80EA93E00E94420B45E803
:102AF00051E067E388E20E94CF0D99CF019709F07A
:102B000096CF49E851E069E185E00E94CF0D2AE0C7
:102B100048E56CE184E00E94560A6091D40570910A
:102B2000D505072E000C880B990B0E94611720E039
:102B300030E048E452E40E94BE1620E030E048E174
:102B400052E40E94ED1720E030E040E352E40E949E
:102B500052160E943017862F26E048E06EE10E9450
:102B6000300A42E951E0C5CF46E951E06AE08CE124
:102B70000E94CF0D4AE951E069E18FE00E94CF0D3C
:102B80004CE951E067E28FE00E94CF0D4EE951E041
:102B900065E38FE00E94CF0D2AE046E460E189E121
:102BA0000E94560A2AE046E46EE189E10E94560A34
:102BB0002AE046E46CE289E10E94560A6091D6055B
:102BC0007091D705072E000C880B990B0E94611796
:102BD00020E030E04FE753E40E94BE1620E030E0F2
:102BE00044E852E40E94ED170E943017462F26E079
:102BF00062E18BE10E94300A6091D8057091D9059D
:102C0000072E000C880B990B0E94611720E030E022
:102C10004FE753E40E94BE1620E030E044E852E45F
:102C20000E94ED170E943017462F26E060E28BE1EC
:102C30000E94300A6091DA057091DB05072E000CC6
:102C4000880B990B0E94611720E030E04FE753E4B6
:102C50000E94BE1620E030E044E852E40E94ED17E6
:102C60000E943017462F26E06EE28BE10E94300A68
:102C70006091CE056D9F602D1124685E40EA51E0A1
:102C800085E039CF42EA51E06AE088E10E94CF0D49
:102C900069E38DE00E94E2096DE089E30E94E209A8
:102CA000C6CE5058BB27AA270E9469160C94B317AA
:102CB0000E94A51738F00E94AC1720F039F49F3F0E
:102CC00019F426F40C94A2170EF4E095E7FB0C948B
:102CD0009C17E92F0E94C41758F3BA1762077307AD
:102CE0008407950720F079F4A6F50C94E6170EF406
:102CF000E0950B2EBA2FA02D0B01B90190010C010C
:102D0000CA01A0011124FF27591B99F0593F50F423
:102D1000503E68F11A16F040A22F232F342F44277B
:102D2000585FF3CF469537952795A795F040539573
:102D3000C9F77EF41F16BA0B620B730B840BBAF043
:102D40009150A1F0FF0FBB1F661F771F881FC2F7AE
:102D50000EC0BA0F621F731F841F48F487957795C2
:102D60006795B795F7959E3F08F0B0CF9395880F7C
:102D700008F09927EE0F9795879508950E94D2162F
:102D80000C94B3170E94AC1758F00E94A51740F09E
:102D900029F45F3F29F00C949C1751110C94E7170C
:102DA0000C94A2170E94C41768F39923B1F355231A
:102DB00091F3951B550BBB27AA276217730784074E
:102DC00038F09F5F5F4F220F331F441FAA1FA9F3E4
:102DD00035D00E2E3AF0E0E832D091505040E695D2
:102DE000001CCAF72BD0FE2F29D0660F771F881F33
:102DF000BB1F261737074807AB07B0E809F0BB0B26
:102E0000802DBF01FF2793585F4F3AF09E3F510539
:102E100078F00C949C170C94E7175F3FE4F3983E0E
:102E2000D4F3869577956795B795F7959F5FC9F722
:102E3000880F911D9695879597F90895E1E0660FA3
:102E4000771F881FBB1F621773078407BA0720F01C
:102E5000621B730B840BBA0BEE1F88F7E095089585
:102E60000E94CC1788F09F5798F0B92F9927B75137
:102E7000B0F0E1F0660F771F881F991F1AF0BA951E
:102E8000C9F714C0B13091F00E94E617B1E008957F
:102E90000C94E617672F782F8827B85F39F0B93F71
:102EA000CCF3869577956795B395D9F73EF49095D1
:102EB0008095709561957F4F8F4F9F4F0895E8944F
:102EC00009C097FB3EF490958095709561957F4F72
:102ED0008F4F9F4F9923A9F0F92F96E9BB27939520
:102EE000F695879577956795B795F111F8CFFAF430
:102EF000BB0F11F460FF1BC06F5F7F4F8F4F9F4F61
:102F000016C0882311F096E911C0772321F09EE8BE
:102F1000872F762F05C0662371F096E8862F70E024
:102F200060E02AF09A95660F771F881FDAF7880FFE
:102F30009695879597F9089597F99F6780E870E0CF
:102F400060E008959FEF80EC089500240A9416161F
:102F5000170618060906089500240A941216130687
:102F6000140605060895092E0394000C11F4882315
:102F700052F0BB0F40F4BF2B11F460FF04C06F5F31
:102F80007F4F8F4F9F4F089557FD9058440F551F07
:102F900059F05F3F71F04795880F97FB991F61F0DB
:102FA0009F3F79F087950895121613061406551F52
:102FB000F2CF4695F1DF08C0161617061806991FBE
:102FC000F1CF86957105610508940895E894BB27B3
:102FD00066277727CB0197F908950E9400180C9473
:102FE000B3170E94A51738F00E94AC1720F0952364
:102FF00011F00C949C170C94A21711240C94E71751
:103000000E94C41770F3959FC1F3950F50E0551FB0
:10301000629FF001729FBB27F00DB11D639FAA272D
:10302000F00DB11DAA1F649F6627B00DA11D661F7C
:10303000829F2227B00DA11D621F739FB00DA11D9D
:10304000621F839FA00D611D221F749F3327A00D57
:10305000611D231F849F600D211D822F762F6A2FF3
:1030600011249F5750409AF0F1F088234AF0EE0F58
:10307000FF1FBB1F661F771F881F91505040A9F785
:103080009E3F510580F00C949C170C94E7175F3F0E
:10309000E4F3983ED4F3869577956795B795F795C1
:1030A000E7959F5FC1F7FE2B880F911D9695879539
:1030B00097F9089597FB072E16F4009407D077FD33
:1030C00009D00E94901807FC05D03EF49095819598
:1030D0009F4F0895709561957F4F0895A1E21A2E34
:1030E000AA1BBB1BFD010DC0AA1FBB1FEE1FFF1FAC
:1030F000A217B307E407F50720F0A21BB30BE40BFC
:10310000F50B661F771F881F991F1A9469F7609542
:103110007095809590959B01AC01BD01CF010895FC
:10312000AA1BBB1B51E107C0AA1FBB1FA617B707ED
:1031300010F0A61BB70B881F991F5A95A9F7809509
:103140009095BC01CD010895EE0FFF1F0590F491FD
:10315000E02D0994DC0101C06D9341505040E0F72F
:063160000895F894FFCF72
:10316600010002000300000001001815A115C8198E
:10317600FF1815A015C019FF1815AE15A519FF18CB
:10318600152F15AF19FF1815AE1520158015A615A4
:10319600A415A015C0154019FF0001646464646499
:1031A6006400093D00000428960C090000600044F4
:1031B60000000000006D0F450F970F960F8708F26D
:1031C600087B084C414D50005761726D746800329F
:1031D6003730304B00363530304B0053504F544C5F
:1031E6004947485400312F3200506F736974696F34
:1031F6006E00322F3200434F4C4F520047004200C0
:103206003E0043414E444C4500414D4249454E54D3
:0E321600004D6F64653A004552524F52000061
:107E0000112484B714BE81FFF0D085E080938100F7
:107E100082E08093C00088E18093C10086E0809377
:107E2000C20080E18093C4008EE0C9D0259A86E02C
:107E300020E33CEF91E0309385002093840096BBD3
:107E4000B09BFECF1D9AA8958150A9F7CC24DD24C4
:107E500088248394B5E0AB2EA1E19A2EF3E0BF2EE7
:107E6000A2D0813461F49FD0082FAFD0023811F036
:107E7000013811F484E001C083E08DD089C08234E0
:107E800011F484E103C0853419F485E0A6D080C0E4
:107E9000853579F488D0E82EFF2485D0082F10E0AE
:107EA000102F00270E291F29000F111F8ED06801E7
:107EB0006FC0863521F484E090D080E0DECF843638
:107EC00009F040C070D06FD0082F6DD080E0C81688
:107ED00080E7D80618F4F601B7BEE895C0E0D1E017
:107EE00062D089930C17E1F7F0E0CF16F0E7DF06D8
:107EF00018F0F601B7BEE89568D007B600FCFDCFD4
:107F0000A601A0E0B1E02C9130E011968C91119780
:107F100090E0982F8827822B932B1296FA010C0160
:107F200087BEE89511244E5F5F4FF1E0A038BF0790
:107F300051F7F601A7BEE89507B600FCFDCF97BE46
:107F4000E89526C08437B1F42ED02DD0F82E2BD052
:107F50003CD0F601EF2C8F010F5F1F4F84911BD097
:107F6000EA94F801C1F70894C11CD11CFA94CF0C13
:107F7000D11C0EC0853739F428D08EE10CD085E9AC
:107F80000AD08FE07ACF813511F488E018D01DD067
:107F900080E101D065CF982F8091C00085FFFCCF94
:107FA0009093C60008958091C00087FFFCCF809118
:107FB000C00084FD01C0A8958091C6000895E0E648
:107FC000F0E098E1908380830895EDDF803219F02E
:107FD00088E0F5DFFFCF84E1DECF1F93182FE3DFCA
:107FE0001150E9F7F2DF1F91089580E0E8DFEE27F6
:047FF000FF270994CA
:027FFE00040479
:0400000300007E007B
:00000001FF
